{
  "transactions": [
    {
      "hash": "0x81563cd6d5fed74abba8c2d173beba6c511ac74aa3992acbd8efea7a6f67f694",
      "transactionType": "CALL",
      "contractName": null,
      "contractAddress": "0x7d4adbab9a78a0b278dcc9b16d3643a2f8327c93",
      "function": "mint(address,uint256)",
      "arguments": [
        "0x66dCA29D51d92faCA3DEF1F4778272cEe5c84Cc4",
        "1000000000000000000000"
      ],
      "transaction": {
        "from": "0xc88c0cee526f894ba9a70cd4f1879e6d345b69bc",
        "to": "0x7d4adbab9a78a0b278dcc9b16d3643a2f8327c93",
        "gas": "0x16f63",
        "value": "0x0",
        "input": "0x40c10f1900000000000000000000000066dca29d51d92faca3def1f4778272cee5c84cc400000000000000000000000000000000000000000000003635c9adc5dea00000",
        "nonce": "0x2",
        "chainId": "0x4cef52"
      },
      "additionalContracts": [],
      "isFixedGasLimit": false
    },
    {
      "hash": "0xce70b41e8c66bf46cdbc3e0657553f891541822ea56686c75f5358ac264f1d2e",
      "transactionType": "CALL",
      "contractName": null,
      "contractAddress": "0x3baf50f4152bb2c3f0e27693600c6c6c56d9d0e7",
      "function": "execute((address,address,uint256,uint256,uint256,uint256,bytes),bytes)",
      "arguments": [
        "(0x66dCA29D51d92faCA3DEF1F4778272cEe5c84Cc4, 0x7D4adbab9A78a0b278DCc9B16d3643a2F8327c93, 0, 200000, 0, 1777642977, 0xa9059cbb000000000000000000000000c88c0cee526f894ba9a70cd4f1879e6d345b69bc0000000000000000000000000000000000000000000000056bc75e2d63100000)",
        "0x09de6e7dd1c6d5e8b8a7e065cffb9dd95413eacc119385ea62c58a5933ef4e8e516ed8685e1a392133f7bd9df968868e73f69f132c7de11acba34d1944fdd6cf1c"
      ],
      "transaction": {
        "from": "0xc88c0cee526f894ba9a70cd4f1879e6d345b69bc",
        "to": "0x3baf50f4152bb2c3f0e27693600c6c6c56d9d0e7",
        "gas": "0x1f32e",
        "value": "0x0",
        "input": "0x0d9ede45000000000000000000000000000000000000000000000000000000000000004000000000000000000000000000000000000000000000000000000000000001a000000000000000000000000066dca29d51d92faca3def1f4778272cee5c84cc40000000000000000000000007d4adbab9a78a0b278dcc9b16d3643a2f8327c9300000000000000000000000000000000000000000000000000000000000000000000000000000000000000000000000000000000000000000000000000030d4000000000000000000000000000000000000000000000000000000000000000000000000000000000000000000000000000000000000000000000000069f4ade100000000000000000000000000000000000000000000000000000000000000e00000000000000000000000000000000000000000000000000000000000000044a9059cbb000000000000000000000000c88c0cee526f894ba9a70cd4f1879e6d345b69bc0000000000000000000000000000000000000000000000056bc75e2d6310000000000000000000000000000000000000000000000000000000000000000000000000000000000000000000000000000000000000000000000000004109de6e7dd1c6d5e8b8a7e065cffb9dd95413eacc119385ea62c58a5933ef4e8e516ed8685e1a392133f7bd9df968868e73f69f132c7de11acba34d1944fdd6cf1c00000000000000000000000000000000000000000000000000000000000000",
        "nonce": "0x3",
        "chainId": "0x4cef52"
      },
      "additionalContracts": [],
      "isFixedGasLimit": false
    }
  ],
  "receipts": [
    {
      "type": "0x2",
      "status": "0x1",
      "cumulativeGasUsed": "0x5021d",
      "logs": [
        {
          "address": "0x7d4adbab9a78a0b278dcc9b16d3643a2f8327c93",
          "topics": [
            "0xddf252ad1be2c89b69c2b068fc378daa952ba7f163c4a11628f55a4df523b3ef",
            "0x0000000000000000000000000000000000000000000000000000000000000000",
            "0x00000000000000000000000066dca29d51d92faca3def1f4778272cee5c84cc4"
          ],
          "data": "0x00000000000000000000000000000000000000000000003635c9adc5dea00000",
          "blockHash": "0x70fd96379c88a920ce59d0468ef415a114b6af75c8f728f1e1aa8ea7d8560bd0",
          "blockNumber": "0x261fea0",
          "blockTimestamp": "0x69f49fe4",
          "transactionHash": "0x81563cd6d5fed74abba8c2d173beba6c511ac74aa3992acbd8efea7a6f67f694",
          "transactionIndex": "0x2",
          "logIndex": "0x6",
          "removed": false
        }
      ],
      "logsBloom": "0x00000000000000000000200000000000000000000000000000010000000000000000000000000000000000000000000000000000000000000000000000000000000000000000000000000008000100000000000000000000000000000000000000000000020000000000000000000800000000000000000000000010000000000000000000000000000000000000000000000000000000000000000000000000000000000000000000000000000000080000000000000000000000000000000000000002000000000000000000000000000000000000000000000000000020000000000000000000000000000000000000000000000000000000200000000002",
      "transactionHash": "0x81563cd6d5fed74abba8c2d173beba6c511ac74aa3992acbd8efea7a6f67f694",
      "transactionIndex": "0x2",
      "blockHash": "0x70fd96379c88a920ce59d0468ef415a114b6af75c8f728f1e1aa8ea7d8560bd0",
      "blockNumber": "0x261fea0",
      "gasUsed": "0x109fc",
      "effectiveGasPrice": "0x4a8270a40",
      "from": "0xc88c0cee526f894ba9a70cd4f1879e6d345b69bc",
      "to": "0x7d4adbab9a78a0b278dcc9b16d3643a2f8327c93",
      "contractAddress": null
    },
    {
      "type": "0x2",
      "status": "0x1",
      "cumulativeGasUsed": "0x6576f",
      "logs": [
        {
          "address": "0x7d4adbab9a78a0b278dcc9b16d3643a2f8327c93",
          "topics": [
            "0xddf252ad1be2c89b69c2b068fc378daa952ba7f163c4a11628f55a4df523b3ef",
            "0x00000000000000000000000066dca29d51d92faca3def1f4778272cee5c84cc4",
            "0x000000000000000000000000c88c0cee526f894ba9a70cd4f1879e6d345b69bc"
          ],
          "data": "0x0000000000000000000000000000000000000000000000056bc75e2d63100000",
          "blockHash": "0x70fd96379c88a920ce59d0468ef415a114b6af75c8f728f1e1aa8ea7d8560bd0",
          "blockNumber": "0x261fea0",
          "blockTimestamp": "0x69f49fe4",
          "transactionHash": "0xce70b41e8c66bf46cdbc3e0657553f891541822ea56686c75f5358ac264f1d2e",
          "transactionIndex": "0x3",
          "logIndex": "0x7",
          "removed": false
        }
      ],
      "logsBloom": "0x02000000004000000000200000000000000000000000000000010000000000000000000000000000000000000000000000000000000000000000000000000000000000000000000000000008000100000000000000000000000000000000000000000000000000000000000000000000000000000000000000000010000000000000000000000000000000000000000000000000000000000000000000000000000000000000000000000000000000080000000000000000000000000000000000000002100000000000000000000000000000000000000000000000000000000000000000000000000000000000000000000000000000000000200000000002",
      "transactionHash": "0xce70b41e8c66bf46cdbc3e0657553f891541822ea56686c75f5358ac264f1d2e",
      "transactionIndex": "0x3",
      "blockHash": "0x70fd96379c88a920ce59d0468ef415a114b6af75c8f728f1e1aa8ea7d8560bd0",
      "blockNumber": "0x261fea0",
      "gasUsed": "0x15552",
      "effectiveGasPrice": "0x4a8270a40",
      "from": "0xc88c0cee526f894ba9a70cd4f1879e6d345b69bc",
      "to": "0x3baf50f4152bb2c3f0e27693600c6c6c56d9d0e7",
      "contractAddress": null
    }
  ],
  "libraries": [],
  "pending": [],
  "returns": {},
  "timestamp": 1777639397396,
  "chain": 5042002,
  "commit": null
}